S0220000496E74657273656374696F6E5F547261666669635F4C696768742E7372656396
S11300000C9434000C943E000C943E000C943E007E
S11300100C943E000C943E000C943E000C943E0064
S11300200C943E000C943E000C943E000C943E0054
S11300300C943E000C943E000C943E000C943E0044
S11300400C943E000C943E000C943E000C943E0034
S11300500C943E000C943E000C943E000C943E0024
S11300600C943E000C943E0011241FBECFEFD8E048
S1130070DEBFCDBF0E9440000C944C010C940000E4
S1130080CF93DF93CDB7DEB72C970FB6F894DEBFCE
S11300900FBECDBF8CEF8AB982E090E09A8389834A
S11300A083E090E09C838B8384E090E09E838D8347
S11300B085E090E098878F8386E090E09A8789872F
S11300C087E090E09C878B878AB184608AB961E07D
S11300D070E06130710559F42FE332E44FE02150B0
S11300E030404040E1F700C0000060E070E04BB1F8
S11300F081E090E09C010D8002C0220F331F0A941E
S1130100E2F7242B2BB94BB19C010F8002C0220FC4
S1130110331F0A94E2F7242B2BB92FE734E84EE17E
S1130120215030404040E1F700C000003BB1AC0139
S11301300D8002C0440F551F0A94E2F7242F209526
S113014023232BB93BB1AC010F8002C0440F551FD0
S11301500A94E2F7242F209523232BB94BB19C0159
S11301600B8002C0220F331F0A94E2F7242B2BB911
S11301704BB19C01098402C0220F331F0A94E2F799
S1130180242B2BB92FE73AE146E021503040404080
S1130190E1F700C000003BB1AC010B8002C0440F8A
S11301A0551F0A94E2F7242F209523232BB93BB142
S11301B0AC01098402C0440F551F0A94E2F7242FAE
S11301C0209523232BB94BB19C01098002C0220F37
S11301D0331F0A94E2F7242B2BB94BB19C010B84F7
S11301E002C0220F331F0A94E2F7242B2BB92FE706
S11301F034E84EE1215030404040E1F700C00000B7
S11302003BB1AC01098002C0440F551F0A94E2F7C8
S1130210242F209523232BB93BB1AC010B8402C0BE
S1130220440F551F0A94E2F7242F209523232BB95A
S11302304BB19C010B8002C0220F331F0A94E2F7DA
S1130240242B2BB94BB19C01098402C0220F331F0C
S11302500A94E2F7242B2BB92FE73AE146E0215028
S113026030404040E1F700C000003BB1AC010B80DE
S113027002C0440F551F0A94E2F7242F209523232C
S11302802BB92BB1098402C0880F991F0A94E2F795
S10F0290809582238BB91DCFF894FFCF1A
S9030000FC
